:10000000E8200020D50F00006910000069100000F2
:1000100000000000000000000000000000000000E0
:100020000000000000000000000000006910000057
:1000300000000000000000006910000069100000CE
:1000400069100000691000006910000069100000CC
:1000500069100000691000006910000069100000BC
:1000600069100000691000006910000069100000AC
:10007000691000006910000069100000691000009C
:100080006910000069100000691000000000000005
:1000900000000000691000006910000069100000F5
:1000A0006910000010B5064C2378002B07D1054BD2
:1000B000002B02D0044800E000BF0123237010BDD4
:1000C0008C0000200000000094610000084B10B577
:1000D000002B03D00749084800E000BF0748036829
:1000E000002B00D110BD064B002BFBD09847F9E741
:1000F0000000000090000020946100009461000066
:100100000000000080B500AF024B9847C046BD46D6
:1001100080BDC046D51A000080B584B000AF7860BD
:100120000A00FB1C1A700823FA187B6811001800DB
:10013000104B98477B6818000F4B984780231A0193
:100140007B68762118000D4B9847BB68F91C01228B
:1001500018000B4B9847BB680F22B91801221800F2
:10016000084B98470F23FB181B781800BD4604B0B6
:1001700080BDC046191D0000B91C0000D91C00003C
:10018000391D00008D1D000080B584B000AF78607F
:1001900008001100FB1C021C1A70BB1C0A1C1A7000
:1001A0000C23FB18FA1C12781A700C23FB18BA1CCB
:1001B00012785A700823FA187B68110018000C4B4B
:1001C00098477B6818000B4B984780231A017B687F
:1001D00076211800084B9847BB680C22B9180222F8
:1001E0001800064B9847C046BD4604B080BDC046C7
:1001F000191D0000B91C0000D91C0000391D0000A9
:1002000090B587B000AF78601723FC187B68D021C9
:100210001800FE4B9847030023701723FB181B7828
:10022000602B00D073E23420F94B984703003B6108
:100230003B697A681A603B692D22112199543B6908
:100240002C22002199543B692F22012199543B69AA
:100250002E22012199543B693022012199540F2308
:10026000FC187B6888211800E84B9847030023702E
:100270000E23FC187B6889211800E44B9847030083
:1002800023700E23FB181B781B021AB20F23FB18D6
:100290001B781BB213431BB29AB23B699A800F239F
:1002A000FC187B688A211800D84B984703002370FC
:1002B0000E23FC187B688B211800D44B9847030051
:1002C00023700E23FB181B781B021AB20F23FB1896
:1002D0001B781BB213431AB23B69DA800F23FC1858
:1002E0007B688C211800C94B9847030023700E23AC
:1002F000FC187B688D211800C44B984703002370BD
:100300000E23FB181B781B021AB20F23FB181B7855
:100310001BB213431AB23B691A810F23FC187B6886
:100320008E211800B94B9847030023700E23FC1848
:100330007B688F211800B54B9847030023700E236C
:10034000FB181B781B021AB20F23FB181B781BB279
:1003500013431BB29AB23B695A810F23FC187B6886
:1003600090211800A94B9847030023700E23FC1816
:100370007B6891211800A54B9847030023700E233A
:10038000FB181B781B021AB20F23FB181B781BB239
:1003900013431AB23B699A810F23FC187B689221A0
:1003A00018009A4B9847030023700E23FC187B68B3
:1003B00093211800954B9847030023700E23FB18D8
:1003C0001B781B021AB20F23FB181B781BB21343B6
:1003D0001AB23B69DA810F23FC187B68942118005C
:1003E0008A4B9847030023700E23FC187B689521E5
:1003F0001800864B9847030023700E23FB181B78C8
:100400001B021AB20F23FB181B781BB213431AB23C
:100410003B691A820F23FC187B68962118007B4BDE
:100420009847030023700E23FC187B68972118005F
:10043000764B9847030023700E23FB181B781B0292
:100440001AB20F23FB181B781BB213431AB23B6975
:100450005A820F23FC187B68982118006B4B984731
:10046000030023700E23FC187B6899211800674B4A
:100470009847030023700E23FB181B781B021AB247
:100480000F23FB181B781BB213431AB23B699A82E5
:100490000F23FC187B689A2118005C4B98470300D7
:1004A00023700E23FC187B689B211800574B98473C
:1004B000030023700E23FB181B781B021AB20F23B4
:1004C000FB181B781BB213431AB23B69DA820F2365
:1004D000FC187B689C2118004C4B98470300237044
:1004E0000E23FC187B689D211800484B9847030099
:1004F00023700E23FB181B781B021AB20F23FB1864
:100500001B781BB213431AB23B691A830F23FC18E2
:100510007B689E2118003D4B9847030023700E23F3
:10052000FC187B689F211800384B98470300237004
:100530000E23FB181B781B021AB20F23FB181B7823
:100540001BB213431AB23B695A830F23FC187B6812
:10055000A12118002D4B9847030023703B690F22FF
:10056000BA1812781A770F23FC187B68E12118005B
:10057000264B9847030023700E23FC187B68E2216A
:100580001800224B9847030023700E23FB181B789A
:100590009BB21B029AB20F23FB181B789BB2D31895
:1005A0009BB21AB23B69DA830F23FC187B68E32104
:1005B0001800164B9847030023703B690F22BA18A6
:1005C000202112785A540F23FC187B68E42118006C
:1005D0000E4B9847030023700E23FC187B68E5211F
:1005E00018000A4B9847030023700E23FB180E22B5
:1005F000BA1812780F210A401A700E23FB181B78C4
:100600009AB20F23FB181B7804E0C04619010000C2
:10061000B55600009BB21B019BB2D3189BB21AB215
:100620003B695A840F23FC187B68E52118003A4B7C
:100630009847030023700E23FC187B68E6211800FE
:10064000354B9847030023700F23FB180F22BA186D
:1006500012780F218A431A700F23FB180F22BA1841
:10066000127812091A700E23FB180E22BA1812788B
:1006700012011A700E23FB181B789AB20F23FB1875
:100680001B789BB2D3189BB21AB23B699A840F2392
:10069000FC187B68E72118001F4B98470300237064
:1006A0000F23FB181B781AB23B69DA843B691800E8
:1006B0001A4B98470D23FB1811221A700D23FB18B3
:1006C0001A787B68F2211800154B98470C23FB1809
:1006D00093221A700B23FB1800221A700C23FB18AC
:1006E0001A787B68F42118000D4B98470B23FB18F0
:1006F0001A787B68F5211800094B98476420094B4C
:1007000098473B693122012199543B6900E000235D
:100710001800BD4607B090BD190100002907000070
:1007200089010000511B000080B582B000AF7860E5
:100730007B681B68B622E0211800034B9847C0462F
:10074000BD4602B080BDC04689010000F0B58BB047
:1007500000AFF860B9605A4BB8689847594C00220E
:10076000594BA04703000C001D002600FB689A8827
:10077000564B10009847534C0022554BA04703009E
:100780000C001A002300534C28003100A04703003E
:100790000C001D002600FB6806229A5E484B1000E4
:1007A000984702000B004C4C28003100A047030082
:1007B0000C003B627C62424BB8689847414C002277
:1007C0008223DB05A04703000C001D002600FB6808
:1007D0009A883E4B100098473A4C00223F4BA04766
:1007E00003000C001A0023003A4C28003100A047F7
:1007F00003000C001D002600314BB8689847314CAF
:1008000000228223DB05A04703000C003B607C60D4
:10081000FB689A882D4B100098472A4C00222F4BDA
:10082000A04703000C001A0023002A4C386879689E
:10083000A04703000C001A002300274C28003100B9
:10084000A04703000C001D002600FB6808229A5EEA
:100850001B4B1000984702000B001F4C2800310072
:10086000A04703000C00BB61FC611D4CBA69FB6929
:10087000386A796AA04703000C0019002200194B5E
:100880000800110098470200FB689A62144CBA698C
:10089000FB69386A796AA04703000C001800210040
:1008A000084C0022104BA04703000C003B617C6108
:1008B0003B697C6918002100BD460BB0F0BDC04605
:1008C0003D550000414100000000D040C1550000EE
:1008D00000009040A94E0000A94900000000C0405F
:1008E000213B0000D55400000000B440F0B589B0B1
:1008F00000AF786039607B689A6AB84B10009847FF
:10090000B74C00228023DB05A04703000C00180031
:100910002100B44C0022B44BA04703000C00BB6183
:10092000FC61B24CBA69FB69B869F969A047030078
:100930000C001D0026007B6814229A5EA74B100055
:10094000984702000B00A94C28003100A047030083
:100950000C0018002100A24C0022A54BA047030068
:100960000C003B617C617B6812229A5E9B4B1000FD
:1009700098479E4CBA69FB69A04703000C00180019
:1009800021009C4C02000B00A04703000C001A0041
:100990002300984C38697969A04703000C003B613B
:1009A0007C618F4C0022944B38697969A047030021
:1009B0000C001D0026007B6810229A5E874B1000F9
:1009C00098478A4C00228D4BA04703000C001A0068
:1009D0002300884C28003100A04703000C003B6135
:1009E0007C617B680E229A5E7C4B100098477F4C9E
:1009F000BA69FB69A04703000C00180021007B4C7A
:100A0000BA69FB69A04703000C0018002100744C70
:100A100000227B4BA04703000C001D0026007B68D2
:100A20000C229A5E6D4B10009847704CBA69FB69B6
:100A3000A04703000C001A0023006E4C2800310070
:100A4000A04703000C0018002100654C00226C4BED
:100A5000A04703000C00BB61FC61614C0022644BA9
:100A6000B869F969A04703000C0018002100614C27
:100A70000022644BA04703000C001D0026007B6889
:100A80005A89614B1000984702000B00574C280010
:100A90003100A04703000C00BB61FC615B4C0022ED
:100AA0000023B869F969A047031E02D0002300247F
:100AB0008EE04A4B3868984702000B00494C0020F2
:100AC0005349A04703000C00BB60FC60444C00226B
:100AD000504B38697969A04703000C001A002300C5
:100AE000404CB868F968A04703000C0018002100CA
:100AF0003E4C0022484BA04703000C001800210088
:100B0000374CBA69FB69A04703000C00BB60FC606E
:100B10007B681A229A5E314B10009847334CBA68B2
:100B2000FB68A04703000C00180021002F4CBA6896
:100B3000FB68A04703000C0018002100284C00228D
:100B4000364BA04703000C00BB61FC617B68182298
:100B50009A5E224B10009847244CBA68FB68A04765
:100B600003000C00180021001D4C0022204BA04760
:100B700003000C003B617C611E4C3A697B69B869DB
:100B8000F969A04703000C001D0026007B681622AF
:100B90009A5E124B1000984702000B00154C28007B
:100BA0003100A04703000C00180021000C4C00226B
:100BB0001B4BA04703000C001A0023000D4CB86823
:100BC000F968A04703000C00BB60FC60BB68FC68D0
:100BD00018002100BD4609B0F0BDC0463D550000DB
:100BE00041410000A94E00000040EF40A94900002B
:100BF0000000E040213B0000000010400000F040F9
:100C0000000020410000F03FC1550000C53A00003F
:100C1000000030410000B040006AB8400000E041F0
:100C20000000304090B587B000AF78607B681B68EB
:100C30001722BC18FC2118001C4B98470300237096
:100C40007B681B681622BC18FB211800174B9847BD
:100C5000030023707B681B681522BC18FA2118005A
:100C6000124B9847030023701523FB181B781A03B7
:100C70001623FB181B781B0113431722BA1812788E
:100C80001209D2B213433B613A697B681100180024
:100C9000074B984703000C00BB60FC60BB68FC6816
:100CA00018002100BD4607B090BDC04619010000E4
:100CB0004D07000090B587B000AF78607B681B6877
:100CC0001722BC18FE211800134B9847030023700D
:100CD0007B681B681622BC18FD2118000E4B984734
:100CE000030023701623FB181B781A021723FB1826
:100CF0001B7813433B613A697B6811001800074B6E
:100D0000984703000C00BB60FC60BB68FC681800DF
:100D10002100BD4607B090BD19010000B10D0000D3
:100D200090B587B000AF78607B681B681722BC184D
:100D3000F92118001C4B9847030023707B681B683F
:100D40001622BC18F8211800174B9847030023708F
:100D50007B681B681522BC18F7211800124B9847B6
:100D6000030023701523FB181B781A031623FB18A6
:100D70001B781B0113431722BA1812781209D2B23A
:100D800013433B613A697B6811001800074B984791
:100D900003000C00BB60FC60BB68FC68180021000D
:100DA000BD4607B090BDC04619010000ED08000027
:100DB000F0B589B000AF786139617B699A6A754B8B
:100DC00010009847744C0022744BA04703000C009D
:100DD000BB61FC616F4B3869984705000E007B6969
:100DE00022229A5E6B4B100098476D4C00226D4B8F
:100DF000A04703000C00BB60FC607B6924215A5EA5
:100E0000644B10009847684C0022684BA0470300D1
:100E10000C0018002100624CBA69FB69A04703006E
:100E20000C001A002300624CB868F968A047030060
:100E30000C001A002300584C28003100A047030082
:100E40000C001D0026007B691E229A5E514B10008B
:100E50009847554C0022574BA04703000C00BB603D
:100E6000FC607B6926215A5E4A4B100098474E4C25
:100E70000022514BA04703000C0018002100484CF1
:100E8000BA69FB69A04703000C003B607C607B698A
:100E900020229A5C494B10009847434C0022464B55
:100EA000A04703000C00180021003D4CBA69FB6903
:100EB000A04703000C00180021003D4C0022404BCD
:100EC000A04703000C001A002300354C38687968ED
:100ED000A04703000C0018002100354C0022384BBD
:100EE000A04703000C001A0023002D4CB868F968D5
:100EF000A04703000C001A002300294C28003100F1
:100F0000A04703000C00BB61FC617B691A7F2B4B7F
:100F100010009847224CBA69FB69A04703000C00F7
:100F200018002100204C0022264BA04703000C0093
:100F30001A002300184C00202149A04703000C0090
:100F40001A002300164CB869F969A04703000C0089
:100F5000BB61FC611C4C00221C4BB869F969A047BD
:100F6000031E04D00023194CBB61FC610BE0184C3C
:100F700000220023B869F969A047031E03D00023AB
:100F80000024BB61FC61BB69FC6918002100BD46FF
:100F900009B0F0BD3D550000A94E000000C0F24070
:100FA000A949000000005040414100000000D0402D
:100FB000213B00000000F04000009041C1550000BE
:100FC0000000F03F00002041F93A000000005940C5
:100FD000D13A000080B582B000AF194B7B60194B4D
:100FE0003B607A683B689A420CD007E03B681A1D68
:100FF0003A607A68111D796012681A603A68124B7B
:101000009A42F3D3114B3B6004E03B681A1D3A60EF
:1010100000221A603A680E4B9A42F6D30D4B7B6061
:101020000D4B7A68FF218A439A600C4A53688021ED
:101030000B4353600A4B98470A4B9847FEE7C0465C
:1010400094610000000000208C0000208C00002033
:10105000E80000200000000000ED00E0004000413A
:101060006D560000D534000080B500AFFEE780B5B6
:1010700082B000AF78600A00BB1C1A807B68BA1C83
:1010800012885A80C046BD4602B080BD80B584B08B
:1010900000AFF8607A600B23FB180A1C1A700B2350
:1010A000FB181B78FA68DB01D31808337A681A60DA
:1010B000C046BD4604B080BD80B584B000AFF860C6
:1010C0007A600B23FB180A1C1A700B23FB181B7881
:1010D000FA68DB01D31804337A681A60C046BD464B
:1010E00004B080BD80B584B000AFF8607A600B2397
:1010F000FB180A1C1A700B23FB181B78FA68DB011B
:10110000D31818337A681A60C046BD4604B080BD53
:1011100080B584B000AFF8607A600B23FB180A1C1E
:101120001A700B23FB181B78FA68DB01D3181433F1
:101130007A681A60C046BD4604B080BD90B585B0DF
:1011400000AF78600C0010001900FB1C221C1A7004
:10115000BB1C021C1A707B1C0A1C1A70FB1C197821
:10116000BB1C1A780F23FB1878683024C90141187A
:101170008A18121912781A700F23FB180F22BA1846
:1011800012780F218A431A707B1C1B780F221340A0
:10119000D9B20F23FB180F22BA1812780A431A701B
:1011A000FB1C1A78BB1C1B7879683020D2018A1886
:1011B000D3181B180F22BA1812781A70C046BD46F1
:1011C00005B090BD90B585B000AF78600C00100000
:1011D0001900FB1C221C1A70BB1C021C1A707B1C01
:1011E0000A1C1A70FB1C1978BB1C1A780F23FB18F9
:1011F00078683024C90141188A18121912781A70B7
:101200000F23FB180F22BA1812780F210A401A7008
:101210007B1C1B781B01D9B20F23FB180F22BA18B5
:1012200012780A431A70FB1C1A78BB1C1B78796869
:101230003020D2018A18D3181B180F22BA1812783E
:101240001A70C046BD4605B090BD90B585B000AFE0
:1012500078600C0010001900FB1C221C1A70BB1CCB
:10126000021C1A707B1C0A1C1A70FB1C1978BB1C10
:101270001A780F23FB1878684024C90141188A188E
:10128000121912781A700F23FB180F22BA1812784D
:1012900001218A431A707B1C19780F23FB180F2237
:1012A000BA1812780A431A70FB1C1A78BB1C1B78F8
:1012B00079684020D2018A18D3181B180F22BA1857
:1012C00012781A70C046BD4605B090BDB0B582B068
:1012D00000AF786008001100FB1C021C1A70BB1CD8
:1012E0000A1C1A70FB1C1A78BB1C1B78F91C0878A6
:1012F000B91C09787C684025C0012018411849199B
:101300000978C9B204200143CCB279684020D201E7
:101310008A18D3181B18221C1A70C046BD4602B08A
:10132000B0BDB0B582B000AF786008001100FB1C02
:10133000021C1A70BB1C0A1C1A70FB1C1A78BB1CFE
:101340001B78F91C0878B91C09787C684025C00115
:101350002018411849190978C9B204208143CCB238
:1013600079684020D2018A18D3181B18221C1A70E1
:10137000C046BD4602B0B0BD80B584B000AFF860D5
:101380007A600B23FB180A1C1A700B23FB181B78BE
:10139000FA68DB01D31828337A681A60C046BD4664
:1013A00004B080BD80B582B000AF39601100FB1D74
:1013B000021C1A70BB1D0A1C1A70BB1D1B78012B66
:1013C00023D0022B3FD0002B5DD13A68FB1D19784A
:1013D000C023DB051800314B98473B681B041B0CEE
:1013E0008022D2051A43FB1D1B782D4819002D4B76
:1013F00098473B681B0CC02212061A43FB1D1B7842
:1014000027481900274B984743E03A68FB1D197895
:10141000C023DB051800214B98473B681B041B0CBD
:10142000214A1A43FB1D1B781D4819001D4B984784
:101430003B681B0C1D4A1A43FB1D1B7818481900FA
:10144000184B984725E03A68FB1D1978C023DB0547
:101450001800174B98473B681B041B0C8022D205D1
:101460001A43FB1D1B780E4819000E4B98473B682A
:101470001B0CC02212061A43FB1D1B7808481900DA
:10148000084B984705E00B4B4522190000200A4BFA
:101490009847C046BD4602B080BDC046B9100000A6
:1014A000004400417913000000000240000002C027
:1014B0008D100000345F00004D20000080B582B028
:1014C00000AF39601100FB1D021C1A70BB1D0A1C05
:1014D0001A70BB1D1B78002B08D03A68FB1D1978C9
:1014E000C023DB051800074B984707E03A68FB1D4F
:1014F0001978C023DB051800034B9847C046BD464A
:1015000002B080BDE51000001111000090B583B05D
:1015100000AF040008001100FB1D221C1A70BB1D47
:10152000021C1A707B1D0A1C1A707B1D1B78012B74
:101530000CD0022B29D0002B46D1BB1D1A78FB1DE5
:101540001B7827481900274B984744E0BB1D1B78A0
:1015500001229A40FB1D1978C023DB051800224B9D
:101560009847BB1D1A78FB1D1B781D4819001F4B9F
:101570009847BB1D1B7801229A40FB1D1978C02398
:10158000DB0518001A4B984725E0BB1D1B7801228C
:101590009A40FB1D1978C023DB051800124B9847B1
:1015A000BB1D1A78FB1D1B780D4819000F4B98477F
:1015B000BB1D1B7801229A40FB1D1978C023DB0557
:1015C00018000C4B984706E00B4B882219000020AE
:1015D0000A4B9847C046C046BD4603B090BDC046C2
:1015E0000044004123130000B9100000CD12000098
:1015F000E510000011110000345F00004D200000D4
:1016000090B585B000AF786039607B685A090F23C8
:10161000FB181A707B68DAB20E23FB181F210A40F0
:101620001A703B6801330AD10E23FB181A780F2376
:10163000FB1819781B4800231B4CA0472EE00E23F3
:10164000FB181A780F23FB18197816480123164C3B
:10165000A0470E23FB181B78012213400FD00E2346
:10166000FB181B785B08DAB23B68D8B20F23FB1873
:1016700019780C4C030020000C4CA0470EE00E2300
:10168000FB181B785B08DAB23B68D8B20F23FB1853
:101690001978044C03002000054CA047C046BD4605
:1016A00005B090BD004400414B120000C511000080
:1016B0003D11000080B582B000AF0200FB1D1A7022
:1016C000BB1D0A1C1A70FB1D1B785B09D8B2FB1DE1
:1016D0001B781F221340D9B2BB1D1B781A00034B85
:1016E0009847C046BD4602B080BDC0460D150000FB
:1016F00080B582B000AF786039603A687B681100CD
:101700001800034B9847C046BD4602B080BDC04696
:101710000116000080B582B000AF0200FB1D1A70F8
:10172000BB1D0A1C1A70FB1D1B785B09D8B2FB1D80
:101730001B781F22134001229A401100BB1D1B7809
:101740001A00034B9847C046BD4602B080BDC04654
:10175000A513000080B582B000AF0200FB1D1A7017
:10176000BB1D0A1C1A70FB1D1B785B09D8B2FB1D40
:101770001B781F22134001229A401100BB1D1B78C9
:101780001A00034B9847C046BD4602B080BDC04614
:10179000BD14000080B500AF024B9847C046BD465F
:1017A00080BDC046F522000080B582B000AF0200C7
:1017B000FB1D1A70BB1D0A1C1A70FB1D1B789BB207
:1017C0003F2213409AB2BB1D1B789BB21B0299B2F9
:1017D000F0231B010B409BB213439BB28022D2012A
:1017E00013439BB2044A19001000044B9847C046AB
:1017F000BD4602B080BDC046000C00406F10000026
:1018000080B582B000AF78607B68012B01D10023E6
:1018100017E07B68022B01D1012312E07B68032BC8
:1018200001D102230DE07B68084A934201D10323D2
:1018300007E07B68064A934201D1042301E00D23AF
:101840005B421800BD4602B080BDC046002000418A
:101850000040004180B582B000AF78607A68822392
:10186000DB059A4201D1002313E07B680B4A9342C7
:1018700001D101230DE07B68094A934201D1022383
:1018800007E07B68074A934201D1032301E00D235F
:101890005B421800BD4602B080BDC046002000413A
:1018A000004000410044004180B584B000AF020018
:1018B0003960FB1D1A703B689B0A3F221340FB6096
:1018C000FB1D1B78012B1ED002DC002B05D044E051
:1018D000022B22D0032B36D03FE03B681800264B6A
:1018E0009847031E40DB3B681800234B98470300D2
:1018F000FB60224B214A52690120F96888400100AF
:101900000A435A6130E01D4B1C4A92690120F96874
:10191000884001000A439A6129E03B681800184B8F
:101920009847031E22DB3B681800154B98470300BD
:10193000FB60124B114AD2690120F968884001000E
:101940000A43DA6112E00D4B0C4A126A0120F96871
:10195000884001000A431A6209E00A4B8D221900EF
:101960000020094B984702E0C04600E0C046C04650
:10197000BD4604B080BDC046011800000004004010
:1019800055180000505F00004D20000080B500AFEA
:1019900000211020094B9847094B19001020094BD2
:1019A000984700211120054B9847074B190011203B
:1019B000044B9847C046BD4680BDC046B5160000E2
:1019C00002001000F11600000200110080B500AF07
:1019D000074B19000320074B984700210E20064BA8
:1019E000984703210C20044B9847C046BD4680BD54
:1019F000000C0042A9180000A917000080B500AF34
:101A0000064B9847064A074B11001800064B9847AB
:101A1000064B9847C046BD4680BDC046CD19000064
:101A2000000C0042C4000020591C00008D19000069
:101A300080B500AF064B19003620064B9847064B81
:101A400019003720034B9847C046BD4680BDC046AD
:101A500003003600F11600000300370080B500AF28
:101A6000054B19000320054B984700211220044B19
:101A70009847C046BD4680BD001C0042A918000022
:101A8000A917000080B500AF064B98470649074BE1
:101A900000221800064B9847064B9847C046BD46A3
:101AA00080BDC0465D1A0000001C0042B800002046
:101AB000E11D0000311A000080B500AF034B180093
:101AC000034B9847C046BD4680BDC04610E000E0CD
:101AD000291B000080B500AF0C4B984700210F2058
:101AE0000B4B984702210F200A4B984701235B427A
:101AF00019000F20084B9847084B9847084B984708
:101B0000084B9847C046BD4680BDC04695170000AB
:101B10005517000015170000F1160000FD19000010
:101B2000851A0000B91A000080B582B000AF786055
:101B3000054B7A681A60044B1B681800034B9847E2
:101B4000C046BD4602B080BDA80000203934000068
:101B500090B583B000AF0200BB1D1A80074B1C6814
:101B6000BB1D1B881800064B984703001900200076
:101B7000044B9847C046BD4603B090BDA800002066
:101B8000A52200005534000080B58AB000AFF8608F
:101B9000B960BB1D1A80FB68143B7B627B6A9A8B21
:101BA0001423FB181A80BB1D1A881423FB185A60D3
:101BB0001423FB180C4A5A801423FB18BA689A6045
:101BC0007B6A1422BA1811001800084B98470300CA
:101BD0003B623B6A002B01D03B6A01E0BB1D1B88C6
:101BE0001800BD460AB080BD0180FFFFD93000005B
:101BF00080B58AB000AFF860B960BB1D1A80FB6881
:101C0000143B7B627B6A9A8B1423FB181A80BB1DE2
:101C10001A881423FB185A601423FB180C4A5A80A4
:101C20001423FB18BA689A607B6A1422BA18110050
:101C30001800084B984703003B623B6A002B01D019
:101C40003B6A01E0BB1D1B881800BD460AB080BD81
:101C50000080FFFFD930000080B584B000AF78600D
:101C600039607B685A1E9341DBB20E495E22180030
:101C70000D4B98477B683A68110018000B4B98474A
:101C80000300FB60FB68002B01D0FB6806E07B686B
:101C9000074A9A617B68074A5A6100231800BD46CB
:101CA00004B080BD685F00004D2000003D2E0000A4
:101CB000891B0000F11B000080B582B000AF786086
:101CC0007B681800034B984703001800BD4602B01C
:101CD00080BDC0465D2F000080B584B000AFF860C5
:101CE0007A600A23FB180A1C1A800A23FB181B8837
:101CF0009B059B0D1AB27B6819B28023DB000B4059
:101D00001BB213431BB29AB2FB689A83FB689B8B8E
:101D10001800BD4604B080BD80B582B000AF7860C9
:101D200039607B6814331A003B681A60002318007E
:101D3000BD4602B080BD000080B584B000AFF86041
:101D4000B960BB1D1A80FB68002B04D0BB68002B58
:101D500001D0012300E000231A1C01231340DBB251
:101D6000084934221800084B9847FB681B68BA1DC5
:101D70001288B968F868984703001800BD4604B097
:101D800080BDC046845F00004D20000080B584B057
:101D900000AFF860B960BB1D1A80FB68002B04D04F
:101DA000BB68002B01D0012300E000231A1C012393
:101DB0001340DBB208493D221800084B9847FB68E6
:101DC0005B68BA1D1288B968F86898470300180064
:101DD000BD4604B080BDC046845F00004D200000B9
:101DE00080B586B000AFF860B9607A60FB68002B00
:101DF00004D0BB68002B01D0012300E000231A1C93
:101E000001231340DBB20F49342218000E4B9847D0
:101E1000FB680833BA68110018000C4B98470300A0
:101E20007B617B69002B01D07B6906E0FB68084A77
:101E30005A60FB68074A1A6000231800BD4606B0C6
:101E400080BDC046985F00004D2000001D290000A5
:101E5000B11F0000DD1E000080B582B000AF7860C9
:101E60007B685A1E9341DBB2074953221800074B87
:101E700098477B6808331800054B984700231800E3
:101E8000BD4602B080BDC046985F00004D200000F6
:101E90005D29000080B582B000AF786039607B6852
:101EA000002B04D03B68002B01D0012300E000236D
:101EB0001A1C01231340DBB2064969221800064BA5
:101EC00098477A683B681A6000231800BD4602B044
:101ED00080BDC046985F00004D20000080B586B0F0
:101EE00000AFF860B960BB1D1A8000237B61FB68FE
:101EF0003B61FB68002B08D0BB68002B05D0BB1DE5
:101F00001B88002B01D0012300E000231A1C0123B1
:101F10001340DBB22149F1221800214B9847C046FB
:101F20003B69083318001F4B984703001A00012330
:101F30005340DBB2002BF3D13B6908331800BA6879
:101F40007B69D3181B781900174B9847C0463B692B
:101F500008331800134B984703001A00012353401D
:101F6000DBB2002BF3D17B6901337B61BB1D1B8886
:101F70007A699A42E0D3C0463B69083318000B4B9C
:101F8000984703001A0001235340DBB2002BF3D122
:101F90007B691800BD4606B080BDC046985F000052
:101FA0004D200000CD2900007D290000ED29000012
:101FB00090B587B000AFF860B960BB1D1A800023F0
:101FC0007B61FB683B61FB68002B08D0BB68002B82
:101FD00005D0BB1D1B88002B01D0012300E000238E
:101FE0001A1C01231340D8B286235A00134B190040
:101FF000134B9847C0463B6908331800114B98476C
:1020000003001A0001235340DBB2002BF3D1BA685E
:102010007B69D4183B69083318000B4B98470300C1
:1020200023707B6901337B61BB1D1B887A699A42EF
:10203000E0D37B691800BD4607B090BD985F0000F3
:102040004D2000000D2A0000A929000080B584B0B1
:1020500000AFB9607A600F23FB18021C1A700F23BF
:10206000FB181B7801225340DBB2002B00D000BECE
:10207000C046BD4604B080BD80B584B000AF786076
:102080000A4B1B68002B02D1084B094A1A60074B08
:102090001B68FB60054B1A687B68D218034B1A60FB
:1020A000FB681800BD4604B080BDC046AC000020EF
:1020B000E820002090B583B000AF39601100BB1D4F
:1020C000021C1A807B1D0A1C1A707B1D1B78043BA6
:1020D000042B59D89A00344BD3181B689F46BB1D5C
:1020E0001C883A68314B324910009847030063431B
:1020F0005A1E2E4B0A2110009847030001334EE070
:10210000BB1D1C883A68294B2A49100098470300D8
:1021100063435A1E254B6421100098470300013386
:102120003DE0BB1D1C883868204BFA22910098477F
:1021300003006343581E1D4BFA2291009847030089
:1021400001332CE0BB1D1C883A68184B6421100039
:102150009847030063435A1E144B164910009847D2
:10216000030001331BE0BB1D1C883A680F4B0A219A
:1021700010009847030063435A1E0C4B0C49100093
:102180009847030001330AE0BB1D1B883A6853439C
:102190005A1E064B084910009847030001331800E7
:1021A000BD4603B090BDC046D85F0000B9370000FF
:1021B000A08601001027000040420F0090B583B0B8
:1021C00000AF39601100BB1D021C1A807B1D0A1C68
:1021D0001A707B1D1B78043B042B4BD89A002D4BA7
:1021E000D3181B689F46BB1D1C883A682A4B2B4995
:1021F00010009847030063436422534345E0BB1D2E
:102200001C883A68244B2649100098470300634312
:102210001A0013009B009B185B0036E0BB1D1C8856
:1022200038681D4BFA2291009847030063432CE065
:10223000BB1D1C883A68184B6421100098470300A6
:1022400063435A1E144B0A211000984703000133C0
:102250001BE0BB1D1C883A680F4B0A2110009847F1
:10226000030063435A1E0C4B64211000984703007F
:1022700001330AE0BB1D1B883A685343581E064BC6
:10228000FA2291009847030001331800BD4603B0BD
:1022900090BDC046EC5F0000B9370000A086010089
:1022A0001027000080B582B000AF0200BB1D1A806D
:1022B0000549BB1D1B8807221800044B98470300E3
:1022C0001800BD4602B080BD00127A00BD2100009A
:1022D00080B582B000AF786039607B685A683B682F
:1022E0005B001E210B401A437B685A60C046BD4606
:1022F00002B080BD80B500AF084B00211800084B2C
:102300009847084B9847084B9847084B9847FF2039
:10231000074B9847C046BD4680BDC04600400041BF
:10232000D12200008924000031330000F133000085
:102330009123000080B582B000AF7860C0467B6812
:102340005B781B06DB0FDBB2002BF8D1C046BD4625
:1023500002B080BD80B582B000AF786039607B6824
:102360003A685A607B681800024B9847C046BD46E1
:1023700002B080BD3523000080B582B000AF786028
:1023800039607B683A689A60C046BD4602B080BD3D
:1023900080B582B000AF78607B68012213400DD019
:1023A00080235B00074A19001000074B98478323DE
:1023B0005B02044A19001000044B9847C046BD4612
:1023C00002B080BD000C00407923000055230000BE
:1023D00080B582B000AF78600A00FB1C1A707B6881
:1023E0001B7ADAB2FB1C1B7807210B40DBB21343CC
:1023F000DAB27B681A72C046BD4602B080BD80B5B5
:1024000082B000AF78600A00FB1C1A707B685B7AB0
:10241000DAB2FB1C1B7807210B40DBB21343DAB2A4
:102420007B685A72C046BD4602B080BD80B582B09E
:1024300000AF78600A00FB1C1A707B689B7ADAB2E6
:10244000FB1C1B7807210B40DBB21343DAB27B681D
:102450009A72C046BD4602B080BD80B582B000AF62
:1024600078600A00FB1C1A707B68DB7ADAB2FB1C0E
:102470001B7807210B40DBB21343DAB27B68DA72B8
:10248000C046BD4602B080BD80B500AF0B4B0021F9
:1024900018000B4B9847094B00211800094B98472F
:1024A000064B00211800084B9847044B00211800E8
:1024B000064B9847C046BD4680BDC046000400405C
:1024C000D1230000FF2300002D2400005B24000026
:1024D00080B582B000AF7860C0467B681B8A1B0461
:1024E000DB0FDBB2002BF8D1C046BD4602B080BD89
:1024F00080B582B000AF7860C0467B681B8A1B0441
:10250000DB0FDBB2002BF8D1C046BD4602B080BD68
:1025100080B582B000AF78607B6801229A73C046B4
:10252000BD4602B080BD80B582B000AF78607B68E8
:1025300002229A73C046BD4602B080BD80B582B00B
:1025400000AF78607B689B7BDBB21800BD4602B0B1
:1025500080BD80B582B000AF78607B689B7BDBB2CA
:102560001A00012313405A1E9341DBB21800BD46E6
:1025700002B080BD80B582B000AF78607B689B7B85
:10258000DBB25B08012213405A1E9341DBB21800F4
:10259000BD4602B080BD80B582B000AF78607B6878
:1025A0009B7BDBB29B08012213405A1E9341DBB296
:1025B0001800BD4602B080BD80B582B000AF786023
:1025C0007B681B6802221A437B681A607B681800CC
:1025D000024B9847C046BD4602B080BDD1240000E2
:1025E00080B584B000AF786039607B681800074B15
:1025F00098477B681B68FB60FB683A681340FB6088
:10260000FB681800BD4604B080BDC046D124000060
:1026100080B582B000AF786039607B683A681A6034
:102620007B681800024B9847C046BD4602B080BD8B
:10263000D124000080B582B000AF78607B681B6851
:1026400002221A437B681A607B681800024B984785
:10265000C046BD4602B080BDF124000080B584B004
:1026600000AF786039607B681800074B98477B683B
:102670001B68FB60FB683A681340FB60FB6818004E
:10268000BD4604B080BDC046F124000080B582B0D4
:1026900000AF786039607B683A681A607B68180020
:1026A000024B9847C046BD4602B080BDF1240000F1
:1026B00080B582B000AF78607B685B688022520092
:1026C0001A437B685A607B681800034B9847C046E2
:1026D000BD4602B080BDC046D124000080B582B0A6
:1026E00000AF78607B685B68054A1A407B685A6077
:1026F0007B681800034B9847C046BD4602B080BDBA
:10270000FFFEFFFFD124000080B582B000AF7860EB
:102710007B685B688022D2021A437B685A607B68C0
:102720001800034B9847C046BD4602B080BDC04666
:10273000D124000080B582B000AF78607B685B6810
:10274000054A1A407B685A607B681800034B98471B
:10275000C046BD4602B080BDFFFFFBFFD124000094
:1027600080B582B000AF786039607B685A683B689A
:102770001904C0239B020B401A437B685A607B6894
:102780001800034B9847C046BD4602B080BDC04606
:10279000D124000080B582B000AF786039607B68DA
:1027A0003A685A607B681800024B9847C046BD469D
:1027B00002B080BDD124000080B582B000AF786047
:1027C00039607B683A685A607B681800024B98470A
:1027D000C046BD4602B080BDF124000080B582B085
:1027E00000AF78600A00FB1C1A707B68FA1C127834
:1027F0001A72C046BD4602B080BD80B582B000AF3F
:1028000078600A00BB1C1A807B68BA1C12885A8147
:10281000C046BD4602B080BD80B582B000AF7860D2
:102820000A00BB1C1A807B68BA1C12885A81C046F9
:10283000BD4602B080BD000080B582B000AF7860B8
:102840000A00FB1C1A707B68FA1C12781A757B68E8
:102850001800034B9847C046BD4602B080BDC04635
:10286000D124000080B582B000AF78600A00FB1C64
:102870001A707B68FA1C12781A76C046BD4602B000
:1028800080BD80B582B000AF78607B681B7EDBB214
:102890001800BD4602B080BD80B582B000AF786040
:1028A0000A00BB1C1A807B68BA1C12881A83C046B7
:1028B000BD4602B080BD80B582B000AF78607B6855
:1028C0001B8B9BB21800BD4602B080BD80B582B0A4
:1028D00000AF78607B681800064B98477B681B8ABE
:1028E0009BB21B099BB2032213409BB21800BD464A
:1028F00002B080BDD124000080B582B000AF786006
:102900007B681800044B98477B681B8A9BB21800B1
:10291000BD4602B080BDC046D124000080B582B063
:1029200000AF786039607B685A1E9341DBB208497A
:10293000A1221800074B98477B683A681A603B68E9
:102940001800054B984703001800BD4602B080BD33
:10295000006000004D200000D12A000080B582B048
:1029600000AF78607B681B681800034B9847C0462F
:10297000BD4602B080BDC0463526000080B582B09D
:1029800000AF78600A00FB1C1A707B681A68FB1C99
:102990001B789BB219001000024B9847C046BD46F9
:1029A00002B080BD9928000080B582B000AF786089
:1029B0007B681B681800044B98470300DBB21800C3
:1029C000BD4602B080BDC046B728000080B582B0C9
:1029D00000AF78607B681B681800034B98470300C2
:1029E0001800BD4602B080BD5325000080B582B0FE
:1029F00000AF78607B681B681800034B98470300A2
:102A00001800BD4602B080BD7525000080B582B0BB
:102A100000AF78607B681B681800034B9847030081
:102A20001800BD4602B080BD9725000080B582B079
:102A300000AF78607B68044A944663449B0ADBB22B
:102A40001800BD4602B080BD00F8FFBD90B585B04E
:102A500000AF78600E23FC187B681800174B98476E
:102A6000030023700F23FB1800221A7015E00F23B8
:102A7000FB181A78124B1201D35C0E22BA18127886
:102A80009A4203D10F23FB181B7812E00F23FB1887
:102A90001A780F23FB1801321A700F23FB181B78CA
:102AA000002BE4D0074A084B19000020074B984739
:102AB00000231800BD4605B090BDC0462D2A000079
:102AC000000000202A020000006000004D200000ED
:102AD00090B585B000AF78600F23FC187B681800B4
:102AE0002C4B9847030023707B6818002A4B9847AB
:102AF0007B6802211800294B9847031E08D07B6889
:102B000000211800264B98477B681800224B9847F5
:102B10007B6801211800224B98477B6818001E4BE8
:102B200098470F23FB181B781E4A1B01D318043348
:102B30001A687B6811001800194B98470F23FB187F
:102B40001B78184A1B01D31808331A687B681100D8
:102B50001800154B98470F23FB181B78114A1B01CF
:102B6000D3180C331A887B68110018000F4B984754
:102B70000F23FB181B780B4A1B01D3180E331A784E
:102B80007B68110018000A4B984700231800BD46C7
:102B900005B090BD4D2A0000F12400005D26000024
:102BA0008D26000000000020B92700001928000031
:102BB000DD27000090B585B000AF78600E23FC18CB
:102BC0007B681800184B9847030023700F23FB18ED
:102BD00000221A7018E00F23FB181A78134913000B
:102BE0005B009B18DB005B5C0E22BA1812789A42DD
:102BF00003D10F23FB181B7812E00F23FB181A7860
:102C00000F23FB1801321A700F23FB181B78002BBF
:102C1000E1D0074A074B19000020074B98470023D3
:102C20001800BD4605B090BD2D2A00001000002000
:102C300066030000006000004D20000080B582B0F7
:102C400000AF78607B6803211800034B9847C046AB
:102C5000BD4602B080BDC0466127000090B587B078
:102C600000AFF860B9607A601623FC18FB681800A2
:102C7000694B984703002380BB680122134000D1B1
:102C800079E01623FB181B880222134020D0FB6832
:102C90001800624B98477B685B889BB28022520188
:102CA00013439AB27B685A807B685B889BB25C4A0C
:102CB00013409AB27B685A801623FB181B880122A6
:102CC000134002D005235B42A2E004235B429FE055
:102CD0001623FB181B880422134021D07B685B68F5
:102CE000002B08DD7B685B889BB280225201134376
:102CF0009AB27B685A807B685B889BB21BB2002BC0
:102D000003DAFB681800474B98477B685B889BB2E7
:102D1000434A13409AB27B685A8002235B4277E0B1
:102D20007B685B68002B12D17B685B889BB21BB20F
:102D3000002B03DAFB6818003A4B98477B685B88E6
:102D40009BB2374A13409AB27B685A8011E07B6885
:102D50009B681A78FB6811001800334B98477B6812
:102D60009B685A1C7B689A607B685B685A1E7B680C
:102D70005A6000234CE0BB680222134047D07B68B6
:102D80005B68002B3CD01623FB181B8804221340E1
:102D900036D17B685B685A1E7B685A607B685B68CB
:102DA000002B03D1FB681800204B98477B685B68B9
:102DB000002B15D17B685B889BB21BB2002B07DA16
:102DC000FB6818001A4B9847FB681800154B98478A
:102DD0007B685B889BB2124A13409AB27B685A8028
:102DE0007B689C68621C7B689A60FB681800114BCA
:102DF000984703002370FB6818000F4B984706E0C4
:102E0000FB6818000C4B984702235B4200E000234C
:102E10001800BD4607B090BDF9280000112500003C
:102E2000FFFEFFFF3D2C0000652800000927000081
:102E3000DD260000832800002725000090B585B01E
:102E400000AF786039600F23FC183B681800394BDD
:102E50009847030023707B685A1E9341DBB2364AC1
:102E600036491800364B98477B683A681A613B68C8
:102E70001800344B98473B6802211800324B9847A2
:102E8000031E08D03B6800211800304B98473B6870
:102E900018002C4B98473B68012118002B4B984792
:102EA0003B681800274B98470F23FB181A782849CE
:102EB00013005B009B18DB00CB1804331B68022255
:102EC00093431A003B6811001800204B98470F23CA
:102ED000FB181A781E4913005B009B18DB00CB1807
:102EE00008331A683B68110018001A4B98470F23E3
:102EF000FB181A78164913005B009B18DB00CB18EF
:102F00000C331A883B6811001800134B98470F23A5
:102F1000FB181A780E4913005B009B18DB00CB18D6
:102F200010331A887B68DA8100231800BD4605B08B
:102F300090BDC046B52B0000D20400000060000028
:102F40004D200000D1240000E125000011260000E2
:102F50001000002095270000FB27000080B584B0FA
:102F600000AF7860184BFB607B681B69BB607B68B7
:102F70005A1E9341DBB2154A15491800154B984764
:102F80007B681B695A1E9341DBB2134A1049180033
:102F9000104B9847BB681800104B984708E0FB6837
:102FA000013BFB60FB68002B02DCBB6810221A822D
:102FB000BB6818000A4B98470300012BEFD1002390
:102FC0001800BD4604B080BDFFFF000002050000F0
:102FD000006000004D20000003050000B92500003E
:102FE000CD28000080B584B000AF78603960124B06
:102FF000FB607B681B69BB60BB6818000F4B984780
:1030000003001A003B681A60FB685A1EFA60002B26
:1030100002D105235B420AE03B681B680122134092
:1030200004D13B681B6802221340E5D0002318003E
:10303000BD4604B080BDC046FFFF00003D25000036
:1030400080B586B000AF78607B681B697B617B6868
:103050003B617B685A1E9341DBB2184A184918003D
:10306000184B98477B691800174B98473B691B889A
:103070005B005AB23B695B889BB2190001230B408D
:10308000591E8B41DBB25BB213435BB2DAB27B6990
:10309000110018000D4B98470C23FA187B6811009B
:1030A00018000B4B9847F9683A697B691800094B7F
:1030B000984703001800BD4606B080BD77050000A4
:1030C000006000004D200000352700003928000076
:1030D000E52F00005D2C000090B587B000AF786050
:1030E00039607B681B693B617B685A1E9341DBB288
:1030F0003D4A3E4918003E4B98477B681B695A1E63
:103100009341DBB23B4A39491800394B98473B6839
:103110005A1E9341DBB2384A34491800344B984761
:103120007B685B889BB21A0080235B00134002D04F
:1031300006235B4254E03B685B889BB280225200CE
:1031400013439AB23B685A807B683A6813CA13C328
:103150003B691800294B98477B681800284B984713
:1031600003007B617B69002B31D07B685B889BB25D
:10317000244A13409AB27B685A807B6930E00C2362
:10318000FA187B68110018001F4B984703007B61F9
:103190007B69002B13D03B685B889BB21BB2002B72
:1031A00003DA3B691800194B98477B685B889BB230
:1031B000144A13409AB27B685A807B6910E0F96820
:1031C0007A683B691800124B984703007B617B6863
:1031D0005B889BB21A0080235B001340CFD17B69D0
:1031E0001800BD4607B090BD9105000000600000CA
:1031F0004D2000009205000093050000B12600005C
:1032000041300000FFFEFFFFE52F00003D2C0000D5
:103210005D2C000080B582B000AF78607B68DB6811
:10322000DB08012213405A1E9341DBB21800BD4651
:1032300002B080BD80B582B000AF78607B689B69CA
:1032400002221A437B689A61C046BD4602B080BD27
:1032500080B582B000AF78607B689B69022293439F
:103260001A007B689A61C046BD4602B080BD80B539
:1032700084B000AF78600F23FB187A68127F1A7051
:103280000F23FB180F22BA1812781F210A401A7058
:103290000F23FB181B781800BD4604B080BD80B515
:1032A00082B000AF78600A00FB1C1A707B68FA1CC1
:1032B00012781A77C046BD4602B080BD80B582B094
:1032C00000AF78607B681B6A80221A437B681A62B1
:1032D000C046BD4602B080BD80B584B000AF786006
:1032E0007B681B6AFB60FB681B0C1B051B0DFB60EE
:1032F000FB681800BD4604B080BD80B584B000AF47
:1033000078607B681B6AFB60FB689B0FFB60FB6857
:103310001800BD4604B080BD80B582B000AF7860B3
:1033200039607B683A681A62C046BD4602B080BD0B
:1033300080B582B000AF244B7B607B681800234BC4
:1033400098470200BB1C1A807B681800204B9847E6
:1033500003009A07BB1C1B881B0419001D4B0B4064
:10336000134302221A437B68110018001A4B984736
:103370007B681800194B98477B681800184B9847D2
:1033800003001A00BB1C1A80BB1C1B88DBB21F2267
:103390001340DAB27B6811001800124B9847C04600
:1033A0007B681800104B984703001A000123534014
:1033B000DBB2002BF4D17B6818000C4B9847C04659
:1033C000BD4602B080BDC04600080040D9320000B2
:1033D000FB3200000000FF0F1933000035320000FF
:1033E0006F3200009F32000015320000BD32000035
:1033F00080B582B000AF054B7B607B681800044B42
:103400009847C046BD4602B080BDC0460008004097
:103410005132000080B582B000AF7860044B054A9D
:103420005A60034B05221A60C046BD4602B080BDFB
:1034300010E000E0FFFFFF0080B582B000AF7860D1
:103440007B681800024B9847C046BD4602B080BD5D
:103450001534000080B584B000AF786039603B68F7
:103460001A0E0F23FB181A703B68BB6011E0164B55
:10347000164A5A60144B154A9A60C046124B1A6895
:1034800080235B021340F9D0BB68114A9446634421
:10349000BB600F23FB181B780F22BA18591E11703E
:1034A000002BE4D1084BBA685A60074BBA689A609F
:1034B000C046054B1A6880235B021340F9D0C04612
:1034C000BD4604B080BDC04610E000E0FFFFFF0035
:1034D000010000FF90B5B9B000AFDF23FB18002258
:1034E0001A70DE23FB1800221A70DD23FB1800225D
:1034F0001A7000230024D022BA18136054600023ED
:103500000024C822BA181360546000230024C0228B
:10351000BA18136054608C4B98478C4B18008C4B36
:1035200098470300BC22BA181360BC23FB181B6821
:1035300031229B5C002B00D100E1BC23FB181B68EF
:103540001800844B984703000C00D022BA1813606F
:103550005460BC23FB181B6818007F4B984703007E
:103560000C00C822BA1813605460BC23FB181B68F7
:1035700018007A4B984703000C00C022BA18136059
:103580005460774BD022BA181068516898470200EF
:1035900074493C23FB181800734B9847734C002266
:1035A000734BD021791808684968A04703000C00C4
:1035B000190022006A4B08001100984702006D4B69
:1035C0000A21100098470B001A006B493023FB18A2
:1035D0001800654B98473C23FB181800674B984729
:1035E00003001A003C23FB189A18654B10001900C1
:1035F00002231A00634B98473C23FB18B822BA18E1
:1036000013603023FA18B823FB181B681100180048
:103610005D4B98470300B822BA181360B823FB1813
:103620001B681800554B984703001A00B823FB1875
:103630001B689A18554B1000190003231A00514BB0
:103640009847474BC022BA18106851689847020043
:103650004F493B1D1800444B98473B1D1800474BF2
:10366000984703001A003B1D9A184A4B1000190096
:1036700004231A00434B98473B1DB422BA18136029
:10368000374BC822BA18106851689847020042495F
:103690001C23FB181800344B98471C23FB181800F8
:1036A000364B984703001A001C23FB189A183B4B13
:1036B0001000190003231A00324B98471C23FB18F3
:1036C000B022BA181360B423FB181A68B823FB1889
:1036D0001B68110018002C4B98470300AC22BA1845
:1036E0001360B023FB181A68AC23FB181B68110089
:1036F0001800254B98470300AC22BA1813603A0013
:10370000274B11001800274B9847254B1800264BD4
:1037100098473C68B823FB181B681800174B98475C
:1037200003009AB2AC23FB181B68190020001F4B42
:1037300098471F4B18001F4B9847FEE600231800C0
:10374000BD4639B090BDC04605010000C400002050
:1037500001020000250C0000210D0000B50C000046
:10376000D55400002C60000051580000A949000009
:1037700000002440993A000038600000AF58000073
:103780003C600000C95600009558000040600000F1
:10379000446000004C600000506000005C6000006D
:1037A000B8000020951E0000591E0000391D0000C1
:1037B00088130000511B0000002243088B4274D381
:1037C00003098B425FD3030A8B4244D3030B8B4222
:1037D00028D3030C8B420DD3FF22090212BA030C2B
:1037E0008B4202D31212090265D0030B8B4219D30C
:1037F00000E0090AC30B8B4201D3CB03C01A52412C
:10380000830B8B4201D38B03C01A5241430B8B4273
:1038100001D34B03C01A5241030B8B4201D30B035C
:10382000C01A5241C30A8B4201D3CB02C01A524183
:10383000830A8B4201D38B02C01A5241430A8B4246
:1038400001D34B02C01A5241030A8B4201D30B022F
:10385000C01A5241CDD2C3098B4201D3CB01C01A49
:10386000524183098B4201D38B01C01A5241430953
:103870008B4201D34B01C01A524103098B4201D341
:103880000B01C01A5241C3088B4201D3CB00C01AAE
:10389000524183088B4201D38B00C01A5241430826
:1038A0008B4201D34B00C01A5241411A00D201464B
:1038B000524110467047FFE701B5002000F0F0F8D4
:1038C00002BDC0460029F7D076E7704703460B4398
:1038D0007FD4002243088B4274D303098B425FD309
:1038E000030A8B4244D3030B8B4228D3030C8B4235
:1038F0000DD3FF22090212BA030C8B4202D312121B
:10390000090265D0030B8B4219D300E0090AC30BEF
:103910008B4201D3CB03C01A5241830B8B4201D39C
:103920008B03C01A5241430B8B4201D34B03C01A85
:103930005241030B8B4201D30B03C01A5241C30AFD
:103940008B4201D3CB02C01A5241830A8B4201D36E
:103950008B02C01A5241430A8B4201D34B02C01A58
:103960005241030A8B4201D30B02C01A5241CDD2FD
:10397000C3098B4201D3CB01C01A524183098B4248
:1039800001D38B01C01A524143098B4201D34B0131
:10399000C01A524103098B4201D30B01C01A524194
:1039A000C3088B4201D3CB00C01A524183088B421B
:1039B00001D38B00C01A524143088B4201D34B0004
:1039C000C01A5241411A00D2014652411046704776
:1039D0005DE0CA0F00D04942031000D3404253407B
:1039E00000229C4603098B422DD3030A8B4212D33B
:1039F000FC22890112BA030A8B420CD3890192116D
:103A00008B4208D3890192118B4204D389013AD0A9
:103A1000921100E08909C3098B4201D3CB01C01A7E
:103A2000524183098B4201D38B01C01A5241430991
:103A30008B4201D34B01C01A524103098B4201D37F
:103A40000B01C01A5241C3088B4201D3CB00C01AEC
:103A5000524183088B4201D38B00C01A5241D9D204
:103A600043088B4201D34B00C01A5241411A00D285
:103A70000146634652415B10104601D34042002B81
:103A800000D54942704763465B1000D3404201B500
:103A9000002000F005F802BD0029F8D016E77047B5
:103AA0007047C0468446101C62468C46191C63460B
:103AB00000E0C0461FB500F015FF002801D400212A
:103AC000C8421FBD10B500F06FFE4042013010BD6E
:103AD00010B500F007FF002801DB002010BD012019
:103AE00010BDC04610B500F0FDFE002801DD00202D
:103AF00010BD012010BDC04610B500F08FFE00289B
:103B000001DC002010BD012010BDC04610B500F042
:103B100085FE002801DA002010BD012010BDC0463E
:103B2000F8B54546DE4657464E460C03E0B54E0016
:103B3000C90F88460D00610A440F0C43C7001903E2
:103B40005800DB0F9B464B0A510F0B43760D400D7F
:103B50001900D200D84500D1AEE0351A002D00DCA6
:103B6000F6E000280FD1134300D1DBE06B1E002BE1
:103B700000D037E1BA1A9742BF41641A7F42E41B72
:103B80000126170024E0C64B9E424DD080231B0423
:103B90001943382D00DD07E11F2D00DD38E120201D
:103BA000431B9A460B0050468340994613004846F3
:103BB000EB401843030050468240501E8241E940CA
:103BC0001A43BA1A611A9742A441170064420C1BA7
:103BD000230262D56402650A002D00D1DFE02800CF
:103BE00001F026FD0300083B1F2B00DDD2E0202260
:103BF0003C00D21A9D40D4409F4025439E4200DDA8
:103C0000C4E09E1B731C1F2B00DDF1E02022380056
:103C10002900D21AD840914097402C000143781EC9
:103C20008741DC4000260F437B0709D00F233B4030
:103C3000042B05D03B1DBB42BF417F42E4191F004E
:103C400023022CD5964B01369E4200D19AE0454680
:103C5000944BFF081C406007760564020743240B61
:103C6000760D00212403230B0C0D8F4A24051C43E1
:103C70001440330523435B00ED075B082B433800FA
:103C800019003CBC90469946A246AB46F8BD644636
:103C9000044300D111E2040067467B07C6D14546C4
:103CA0006007FF080743E4087D4B9E4230D02403A1
:103CB0007605240B760DD4E7331A9A46002B78DD6F
:103CC000002831D076488642AED0802000040143DF
:103CD0005346382B00DCE9E00A43511E8A4100219B
:103CE000D219BA42BF4109197C4217000C192302AC
:103CF000D3D56B4B01369E4200D13AE10120694B8E
:103D00001C407B0807401F43E007074364088BE71C
:103D100023003B4300D1CBE1802212031443240350
:103D2000240B9EE72E007FE70800104300D1B4E08B
:103D3000581E002800D0DEE0BA18BA429B41641831
:103D40005B42E418170001262302A6D50226D5E718
:103D5000002D6ED1701C4005400D012800DCF9E0FB
:103D6000B81A844687428041E51A40422D1A28023B
:103D700000D489E0D71BBA4292411C1B5242A51ABB
:103D8000D84629E74546002400276AE7454CF61A3D
:103D90002C4049E73D002838854000272EE73800B1
:103DA00001F046FC20301DE70A43511E8A410021E4
:103DB00007E7002B00D0F3E0701C43055B0D012BDF
:103DC00000DCADE0364B984200D1D1E0BA18BA42DF
:103DD000BF4164187F42E419E7075208174364089B
:103DE000060021E72E48854200D193E01D00D0E671
:103DF00029001F3EF140202B00D18DE04022D31A34
:103E00009D402F437D1EAF4100240F43002644E711
:103E10002B000800203BD8400300202D00D17DE07E
:103E20004020451BA9400A43511E8A4100211A43E4
:103E3000C7E6002E50D01A4EB04257D080266B42B3
:103E40009946360434434B46382B00DDD6E01F2B11
:103E500000DD35E12026F51A2600AE40B2463E00D0
:103E6000DE40AC46350056462E436546AF407D1ECB
:103E7000AF41DC403743D71BBA4292410C1B524240
:103E8000A41A0600D846A3E6644667462C4300D031
:103E9000A2E600250026002706E71E00C4E6C0466D
:103EA000FF070000FFFF7FFFFFFF0F801F2B63DC7A
:103EB0002020C31A080098409C46834653461000B1
:103EC000D84003005846184363469A40531E9A410F
:103ED00053460243D94003E726003E4306D0EB4356
:103EE0009946002BC7D0944EB042ACD10C001700BD
:103EF0000600D84698E6904B9A450BD08246E7E6F6
:103F0000002800D09EE01800104300D1E9E01C001A
:103F10001700D846884E87E6002572E7002182E721
:103F200023003B43002E00D0ABE0002B00D1E7E0A4
:103F30000B00134300D177E6BA18BA42BF416418A8
:103F40007F42E419230200D4F2E07C4B17001C40AE
:103F5000060069E620003843002ED1D100285BD14D
:103F60001C00144300D1A8E01C001700D8465BE6F3
:103F700006000024002797E650460B002038C34077
:103F800099465346202B00D195E0402350461B1AFA
:103F900099400A43511E8A414B4600211A439FE62D
:103FA000002E30D126003E4367D0DB439A46002BDB
:103FB0001CD0614EB04260D05346382B00DD96E0F5
:103FC0001F2B00DD9FE02026F31A26009E409C4612
:103FD000B34653463E00DE4033005E461E43634612
:103FE0009F407B1E9F415346DC403743BF1897429A
:103FF000924164185242A418060078E627437C1EBA
:10400000A741002437E74C4EB04236D080265B42B1
:1040100036049A463443CFE71800104300D103E634
:10402000B81A84466745AD41E01A6D42401B05024F
:1040300000D42CE6D71BBA4292411C1B5242A41A50
:10404000D846F1E51800104300D163E7F808670788
:1040500007438020E4080003044208D0DD0805423D
:1040600005D1D208590711430F002C00D8467B0F09
:10407000E4001C43FF00304ED6E50C00170006009C
:10408000D2E5002B38D00B00134300D142E7F808EB
:10409000670707438020E40800030442E7D0CB0809
:1040A0000342E4D1D208490711430F001C00DEE7A8
:1040B00000270024D5E500216BE700250027F3E564
:1040C0004E462500203EF5404B462E00202B2DD09D
:1040D0004025ED1AAC4027437C1EA74100243743FE
:1040E000C9E6802400252403134E0027DCE527437E
:1040F0007C1EA741002479E70C0017000E4E93E5C3
:104100000C00170090E556462300203EF3409946E8
:104110005346202B0ED0402356469B1B9C402743E2
:104120007C1EA7414B4600241F435FE70024D2E7D3
:104130001700B2E50024F2E7FF070000FFFF7FFF52
:10414000F0B557464546DE464E46E0B54C000E03F8
:1041500087B0834692461D008046360B640DCF0F14
:10416000002C4FD06F4B9C4235D08023420F1B0454
:10417000F600134333439946C30098466A4B002622
:104180009C460023644403932B031B0B9B466B004C
:10419000ED0F50465B0D01955ED0624A934253D0BD
:1041A0005A46D1008022400F120402430A4393462C
:1041B0005246D1005C4A944600226344380068406D
:1041C00084460290E41A16430F2E00D9B4E0574BF0
:1041D000B6009B599F460300334399466CD1002398
:1041E0009846023308260393CEE7CB464146039A0E
:1041F0000197022A65D1019B4A4C9C46002300226C
:1042000098466BE00300334399464ED0002E00D110
:10421000BCE1300001F00CFA03000B3B1C2B00DD6D
:10422000ACE11D22D31A5A460100DA4008398E400B
:104230001300334399465B468B40984600233C4C21
:104240000026241A03939FE751465A46114329D169
:10425000002293460232B1E7594601431ED05B4625
:10426000002B00D19EE1584601F0E2F903000B3B20
:104270001C2B00DD8FE102005946083A91408B4625
:104280001D21CB1A5146D9400B0059460B435146CC
:104290009B469140264B00221B1A8FE700230122E8
:1042A0009B468BE75146032288E70023984601335B
:1042B00004260024039367E70323B14603930C26E7
:1042C00062E7032A00D15CE2019B012A00D0E4E10D
:1042D00013409C460023002400229846002112032C
:1042E000130B0A0D12051A432305124C40462240B7
:1042F000134362465B00D2075B081343190007B003
:104300003CBC90469946A246AB46F0BD00238022B5
:104310009C4612039846034CE0E70023014C002220
:104320009846DBE7FF07000001FCFFFF606000002C
:104330000DFCFFFFFFFF0F80D94500D939E100D107
:1043400034E1002346464D469A46013C5B460A0E40
:104350001B021A430B02170C039313041B0C3900A6
:10436000280090460193FFF727FA0200019B83463D
:104370005A43280039009146FFF7A4FA350C090486
:104380000D43A9450DD95B464544013BA84500D9DD
:104390003AE1A94500D837E102235B429C464544F7
:1043A000E3444B46EB1A390018000493FFF704FA74
:1043B000019B05004343390004989946FFF782FAB0
:1043C000330409041B0C0B43994509D943446A1E65
:1043D000984500D91AE1994500D817E1023D4344B8
:1043E0004A469B1A5A4612042A4303999346100CD4
:1043F0000A0C914609045A46090C4E460D00120457
:10440000120C4543059151437243704352190E0CEF
:10441000B218954203D980256D02AC466044150C54
:1044200009041204090C28185218834200D2CEE065
:1044300000D1C8E01D1A53469E1AB245924152421D
:10444000AB1A9A46984500D117E139001800FFF7DA
:10445000B3F9019B05004343390050460493FFF72D
:1044600031FA04980B04310C1943884209D94144AC
:104470006B1E884500D907E1884200D804E1023D5F
:104480004144049BCB1A180039000493FFF794F9B8
:10449000019B82464343390004980193FFF712FAC7
:1044A00001980B043104090C194388420DD9534675
:1044B0004144013B884500D9E8E0884200D8E5E066
:1044C00002235B429C464144E244019B2D04CE1AE8
:1044D00051462943059D4F462A000B04080C1B0C2E
:1044E0005A4345437B4378435B19170CFB189D42A5
:1044F00003D980256D02AC4660441D0C12041B04D8
:10450000120C28189B18864200D293E000D18EE04E
:1045100001231943A04BE318002B00DC99E04A0764
:1045200000D09EE05A46D20106D55A469B4B1A400F
:1045300080239346DB00E318994A934268DD012308
:10454000029A984C1A400023944698460022C5E6E9
:1045500080224B46120313420AD05B46134206D117
:104560001A431203120BAC4688468E4CB6E64B46F5
:104570001A431203120BBC468A4CAFE603005A469C
:10458000283B9A4000239146984657E6584601F04A
:104590004FF8203040E603005246283B9A40002165
:1045A000934677E601F044F820305FE6884500D274
:1045B000C7E64B46DE075D0843465B081E4343469D
:1045C000DB079A46C2E60025924500D333E7039EF7
:1045D0005946B446E244B245AD416D424544EB18FC
:1045E0000139984507D2984200D97FE000D1BCE05C
:1045F0001D1A8B461FE79845FAD1039D5545F2D900
:1046000043468B461D1A16E79B46CAE61500E7E6A9
:104610005A46C90852070A435B0590465C0D5A4644
:104620000123029952021940120B8C4656E6002BC8
:1046300000D16FE746444A1EB04529D91100864291
:1046400000D065E7039A934200D061E762E7012159
:1046500049420120C21A382A21DD029B03409C46B0
:1046600038E60F220A40042A00D15BE70A00111D38
:10467000914292415242934454E7474BE318002B36
:10468000E5DD01225242F2E71D00FAE69A461CE7F8
:10469000B04239D86ED011003AE702933AE71F2AA8
:1046A0003CDC20239B1A0C005846994098404B1E36
:1046B00099415B46D440D340204308431A00430746
:1046C00009D00F230340042B05D00100081D8842A8
:1046D0009B415B42D21813023AD50123029A01246E
:1046E0001A400023944698460022F7E502214942E9
:1046F0008C46039DE344AC46E244AA45AD416D427D
:104700004544ED182D1A96E68A1E03994D008D42F8
:10471000894149424144761803958FE71F20404262
:10472000C31A5846D8400300202A28D040205D46AE
:10473000821A954029434A1E9141194307230022BA
:104740000B4009D00F2300220B400800042BBDD1E1
:10475000010053075202120BC9081943012388466E
:104760000299002419408C46B8E55245BED88B46C4
:10477000002560E6039D9D42C6D3110062E7002537
:10478000D8E780225B4612031A43019B1203120BE7
:104790009C468846034CA1E5FF030000FFFFFFFE97
:1047A000FE070000FF070000F0B54F464646D6461C
:1047B0005C00C0B51F03DB0F9A46174B0E034D007C
:1047C00084468046360B6D0DC90F91463F0B640D34
:1047D00001209D4208D09C4201D0A5420BD01CBCB8
:1047E00090469946A246F0BD63463343F7D1AC42AA
:1047F000F5D13A43F3D10120BE42F0D1C845EED104
:10480000514507D0002DEAD163461E433000461EB5
:10481000B041E4E70020E2E7FF070000F0B54546BD
:10482000DE4657464E46E0B51F033D0B2C4F0E03A8
:104830004C00AB465D008446360B640DC90F9046B4
:104840006D0DDB0FBC422AD0254FBD422DD0002C70
:104850000FD130430700814678427841C0B2002D25
:1048600017D15F463A4314D14B460020002B0AD0A3
:1048700006E0002D02D15846024301D0994218D0DB
:104880004842012108433CBC90469946A246AB46AB
:10489000F0BD0028F2D00120013B1843F3E73700B8
:1048A0000743D1D002204042EDE75F461743CED008
:1048B000F8E7AC42E4DC03DA481E01210843E2E7F2
:1048C0005E45DDD806D000205E45DCD20123481EBF
:1048D0001843D8E7C445D3D80020C445F6D3D2E75F
:1048E000FF070000F0B54E464546DE4657465C00E1
:1048F000E0B51F03DB0F99462A4B0E034D00C90F8D
:104900008446360B6D0D8B4690463F0B640D9D42E1
:1049100020D0244B9C4222D0002D12D13043434260
:104920004341DBB2002C1FD0002B0CD04B460120A2
:10493000013B034318003CBC90469946A246AB4657
:10494000F0BD002C16D0CB4517D05B465942012351
:104950000B43EFE7310002230143EBD1D9E73900E4
:1049600002231143E6D1D7E73A43DDD100230028E3
:10497000E0D0EAE73A43E6D1E7E7A542E5DC05DB2C
:10498000BE42E2D807D00023BE42D3D2594601230B
:1049900001390B43CEE7C445D7D80023C445F5D32E
:1049A000C8E7C046FF070000F0B557464546DE465B
:1049B0004E46E0B50C0398464E00230B87B0070027
:1049C00092469B46760DCD0F002E6BD06D4B9E42CE
:1049D00035D080245B46420F2404DB0014431C4383
:1049E000C3009946684BA3469C46002300276644B3
:1049F000029343461C035A00DB0F5046240B520D12
:104A0000984600D176E05F4B9A426DD08023410FEB
:104A10001B040B435C49E4008C461C43C30000208C
:104A200062444146B6186940721C0191944607439E
:104A30000F2F00D9B0E0554ABF00D25997465B46C8
:104A40000343994600D087E000239B4602330827A2
:104A50000293CEE742460192022867D0032800D194
:104A60000EE2012800D062E10023002400229946D2
:104A700001990140CDB2002112030B0D120B1B0551
:104A80001343434A240513401C436400ED076408A4
:104A90002C434846210007B03CBC90469946A246AC
:104AA000AB46F0BD034399464FD05B46002B00D187
:104AB00089E1584600F0BCFD03000B3B1C2B00DDD8
:104AC0007AE11D22D31A3A0001005C46DA40083927
:104AD0008C4013008F4023439B46B94600232D4E44
:104AE0000027361A029384E7534623432AD1002431
:104AF000022096E75346234320D0002C00D157E1F3
:104B0000200000F095FD03000B3B1C2B00DD49E16C
:104B10001D21CB1A51460200D9405346083A944011
:104B200093400C431B4A121A00207AE70125019B8F
:104B3000144C1D400023002299469CE700240022CB
:104B400001206EE7534603206BE700239B460133A9
:104B50000427002602934CE7032381460C27029387
:104B600047E780220023002512039946054C82E77F
:104B70005C464B4602986FE75C464B4601950298AF
:104B80006AE7C046FF07000001FCFFFFA0600000CD
:104B9000FFFF0F800DFCFFFF4A464946170C1A0C19
:104BA0001B041B0C08041900000C41431500884627
:104BB00019007D4379430395894629001500454333
:104BC0004D44029545462D0CAA46029D5544A945E3
:104BD00006D98A46802149028946CA445146039132
:104BE000290C0491414609042D04090C884629002A
:104BF000250C24044144240C05912100414388469E
:104C0000210079438A466843414650448146080C56
:104C100048446F43824503D98021490289464F4465
:104C2000010C894639004944029141460F04049918
:104C30003F0C88460004C0198044414604915946FF
:104C40000F0C0904090C884659438A463900514320
:104C5000894641464A435146090C8B467B43D2184C
:104C60005A44934203D980235B029B46D944514660
:104C70000904090C8A46414661437C43130C120423
:104C80004B445244A1468A463C0041466C434D4346
:104C900051464D440F0C7D19A94503D98021490285
:104CA00088464444049F0399B84641448B46834553
:104CB000804141428846514608042F04000C3F18A9
:104CC0005846029910188946904292414F44BA467C
:104CD000524299469346C244D144CB448F42BF418D
:104CE000C245894199459B41934592417F42494242
:104CF0002D0C52420F435B4213437F19FF185B4652
:104D00003C19DB0D059A64021C43430213435D1EEC
:104D1000AB415A46C00D034352021343E20156D53C
:104D200001205A0803401343E207134364085A481A
:104D3000604400284DDD5A0709D00F221A40042A8A
:104D400005D01A1D9A429B415B42E4181300E20110
:104D500004D58020514AC00014406044504A90421B
:104D600000DDE3E60125DB0862071A436402019BCC
:104D70009146220B4405640D1D407CE68022594675
:104D80001203114208D0144206D122431203120B1F
:104D900045469946434C6EE65B461A431203120B96
:104DA000404C68E603005446283B9C400023B9E68B
:104DB00000F03EFC2030A6E60300283B9F40002385
:104DC000BB4699468AE600F033FC203074E6B446D0
:104DD000ADE701252A1A382A06DD019B00241D4073
:104DE00000230022994646E61F2A21DC20252000C8
:104DF000AD1A1E00AB40A840D6405D1EAB4130430B
:104E00001843D440430709D00F230340042B05D097
:104E10000300181D98429B415B42E418230221D5F0
:104E20000125019B01241D4000230022994622E612
:104E30001F2521006D42281AC1400800202A1DD0DC
:104E40005F35AA1A944023435C1EA3410725034300
:104E50001D400022002D09D00F2200241A40180006
:104E6000042AD6D1030065076402220BDB082B431A
:104E700001259946019B00241D40FCE50024E2E742
:104E8000802201251203224301991203120B0D40C7
:104E90009946044CEFE5C046FF030000FFFFFFFE0C
:104EA000FE070000FF070000F0B54646D6464F4615
:104EB0000C03C0B5CD0F4E00610A440F0C43C10076
:104EC0005800400D84468A460F001903500F490AC6
:104ED0000143C648760DA846DB0FD200844500D1B9
:104EE000D8E001204340AB4200D1A6E06046351A2D
:104EF000002D00DC05E1002810D10B00134300D188
:104F0000D7E06B1E002B00D04BE153469F1ABA45E9
:104F10008041641A4042241A01261EE0B34B9E428F
:104F200048D080231B041943382D00DD19E11F2DC3
:104F300000DD4CE120230F005B1B10009A409F40D6
:104F4000E840531E9A41E940074317435346DF1B8D
:104F5000611ABA45A44164420C1B230200D4C5E087
:104F60006402650A002D00D1F6E0280000F060FB25
:104F70000300083B1F2B00DDE9E020223C00D21A91
:104F80009D40D4409F4025439E4200DDDBE09E1BB8
:104F9000731C1F2B00DD0AE120223800D21A2900E1
:104FA00097402C009140D8407A1E9741DC40002663
:104FB00001430F437B0709D00F233B40042B05D04F
:104FC0003B1DBB42BF417F42E4191F00230225D590
:104FD000864B01369E4200D1AFE0854B01251C4037
:104FE00043466207FF08640276051743240B760DDB
:104FF0001D4000212403230B0C0D7E4A24051C4375
:105000001440330523435B00ED075B082B43380056
:1050100019001CBC90469946A246F0BD01254346A6
:105020006207FF081743E4081D40704B9E4236D0CC
:1050300024037605240B760DDBE76346F31A002B79
:1050400000DC94E06046002835D068488642B1D044
:1050500080273F043943382B00DCFDE00A4317006A
:1050600000217A1E9741574457458041091944420F
:105070000C1923023AD55D4B01369E4200D14BE11B
:1050800001225B4B1C407B0817401F43E20717437C
:1050900064088FE70800104300D024E721E72300CD
:1050A0003B4300D1B9E18022120314432403240BB3
:1050B0009FE72E007EE70800104300D1CAE0581E8B
:1050C0008446002800D0E7E05244524580416418ED
:1050D0004042241817000126230207D50226CFE7F5
:1050E00064462C4300D1B3E12C0067467B0700D017
:1050F00062E76307FF081F4301254346E4081D409C
:1051000093E7002D78D1751C6D056D0D012D00DC28
:10511000F2E05046801A8245BF41651A7F42ED1B7E
:105120008446280200D48CE05046171ABA429241B5
:105130000C1B5542651B984614E701254346002485
:105140001D40002755E72A4CF61A2C4032E73D0057
:1051500028388540002717E7380000F069FA20302A
:1051600006E70A43170000217A1E9741EEE6002B5E
:1051700000D0E5E0731C9C465B055B0D012B00DC59
:105180009FE01A4B9C4500D1C5E0524452458041F6
:10519000641840422418E70752081743640866461B
:1051A00008E71248854200D185E01D00BCE62900D1
:1051B0001F3EF140202B00D17FE04022D31A9D40BA
:1051C0002F437D1EAF4100240F4300268EE72B00A6
:1051D0000F00203BDF40202D71D040235D1BA940F4
:1051E0000A43511E8A4100211743AFE6FF07000022
:1051F000FFFF7FFFFFFF0F80002E3ED0B34EB44570
:1052000045D0802636046D423443382D00DDA8E0B9
:105210001F2D00DD1FE1202627005046761BB740DA
:10522000E84007435046B040461EB041EC4038438A
:10523000171ABA4292410C1B5242A41A664698466B
:105240008BE6644667462C4300D08BE6002500269B
:105250000027EAE61E00ADE61F2B60DC2027F81AC7
:105260000F00844687401000D840074360468240C4
:10527000501E8241D9401743F5E6260050460643AA
:1052800005D0ED43002DD3D0904EB445BDD10C00D8
:105290001700664698468DE68C4883420BD06346DD
:1052A000D9E6002D00D096E00800104300D1E2E0DE
:1052B0000C0017009846854E7CE6002580E700210B
:1052C0008EE7230050460343002E00D0A8E0002BB9
:1052D00000D1DEE00B00134300D16BE6524452458F
:1052E00080416418404224181700230200D4FDE6D0
:1052F000774B66461C405DE6250050460543002E70
:10530000CFD1002D4FD10C00144300D1A0E00C00F0
:10531000170098464EE666460024002785E61F00E3
:105320000800203FF8400700202B00D18EE04020ED
:10533000C31A99400A43511E8A410021174392E63D
:10534000002E14D126005046064362D0DB43002BCA
:105350005CD187189742924164185242A41866465D
:1053600087E650462043441EA041002460E7574E84
:10537000B4454ED0802636045B423443382B00DDE2
:105380007FE01F2B00DD8BE0202627005046F61A19
:10539000B740D84007435046B040461EB04107438F
:1053A000DC40BF18D6E70D00154300D102E6504699
:1053B000801A8245BF41651A7F42ED1B8446280250
:1053C00000D48DE65046171ABA4292410C1B524245
:1053D000A41A9846EEE50D00154300D16BE7504640
:1053E0006707C00807438020E4080003044207D091
:1053F000CD08054204D12C009846D70849070F4331
:105400007B0FE4001C43FF00304ED3E52F4EB44524
:10541000B4D10C0017006646CCE500270024E8E56F
:10542000002B39D00B00134300D144E7C0086707B5
:1054300007438020E40800030442E1D0CB08034284
:10544000DED1D70849070F431C00D9E7002171E7D7
:1054500000250027E9E52E002700203EF740202DFB
:105460002FD04026751BAC4050462043441EA0411F
:1054700000243843DCE6802400252403134E002753
:10548000D3E5504620430700781E87410024BF180B
:1054900060E70C0017008DE50C0017000B4E89E546
:1054A0001E002700203EF740202B0CD04026F31A88
:1054B0009C4050462043441EA04107430024BF188F
:1054C00048E70024D0E70024F3E7C046FF070000C8
:1054D000FFFF7FFF30B5134D0A034B00120B5B0D2E
:1054E000C90F0024AB4210DD0F4CA3420FDC802417
:1054F0000E4D64032243ED1A1F2D0BDD0C48C31A19
:10550000DA405442002900D11400200030BD094B7C
:10551000CC18FAE7084CE840A44663449A4002439A
:10552000EFE7C046FE0300001D0400003304000046
:1055300013040000FFFFFF7FEDFBFFFF70B50028A5
:1055400030D0C317C4185C40C50F200000F070F8BD
:10555000174B184A1B1AD21A1F2A18DD164AD21ADC
:105560009440002224035B05240B5B0D00211000F6
:1055700024030A0D240B12052243104C1B05224064
:1055800013435B00ED075B082B43190070BD21003E
:1055900091400A000B21081AC4405B052403240B28
:1055A0005B0DE3E70025002300240022DEE7C04670
:1055B0001E0400003304000013040000FFFF0F80EE
:1055C00010B5041E28D000F033F8154B154A1B1AED
:1055D000D21A1F2A15DD144AD21A9440002224033D
:1055E0005B05240B5B0D0021100024030A0D240B26
:1055F000120522430D4C1B05224013435B00590842
:1056000010BD210091400A000B21081AC4405B051F
:105610002403240B5B0DE6E7002300240022E2E7CD
:105620001E0400003304000013040000FFFF0F807D
:105630001C2101231B04984201D3000C10391B0AC2
:10564000984201D3000A08391B09984201D3000986
:10565000043902A2105C40187047C04604030202DD
:1056600001010101000000000000000070B50026EB
:105670000C4D0D4C641BA410A64209D1002600F06D
:1056800079FD0A4D0A4C641BA410A64205D170BDD9
:10569000B300EB5898470136EEE7B300EB58984754
:1056A0000136F2E780610000806100008061000047
:1056B0008461000010B5034B0100186800F058F831
:1056C00010BDC04628000020002310B59A4200D12A
:1056D00010BDCC5CC4540133F8E7000070B5050080
:1056E000002910D00C1F2368002B00DAE4182800D2
:1056F00000F0E4F81D4A1368002B05D163601460C4
:10570000280000F0DCF870BDA34209D921686018B8
:105710008342F3D118685B6841182160EEE71300FB
:105720005A68002A01D0A242F9D919685818A04233
:105730000BD120680918581819608242E0D110680E
:105740005268411819605A60DAE7A04202D90C2366
:105750002B60D5E721686018824203D11068526837
:105760004118216062605C60CAE7C046B00000205A
:10577000032370B5CD1C9D43083506000C2D1ED2A9
:105780000C25A9421DD8300000F098F8254A14686D
:105790002100002919D1244C2368002B03D13000AB
:1057A00000F044F820602900300000F03FF8431C6E
:1057B0002CD10C233000336000F081F803E0002D81
:1057C000DFDA0C233360002070BD0B685B1B1AD43A
:1057D0000B2B03D90B60CC18256003E08C420ED153
:1057E00063681360300000F06AF8200007220B3075
:1057F000231D9043C31AE7D05A42E250E4E74B68B6
:1058000063600C00EEE70C004968C2E70323C41C88
:105810009C43A042E0D0211A300000F007F8431C5E
:10582000DAD1C6E7B0000020B4000020002370B534
:10583000064C050008002360FCF71EFC431C03D146
:105840002368002B00D02B6070BDC046E400002010
:105850000EB410B59DB002A9029008610B488224D5
:1058600088604861012040421FABC881084804CBD2
:10587000A400006801938C8100F084F80023029A50
:1058800013701DB010BC08BC03B01847FFFFFF7FAA
:1058900028000020020010B51378002B05D1CC5C45
:1058A000D4540133002CFAD110BD0132F4E70023A7
:1058B000C25C0133002AFBD1581E70477047704705
:1058C000F0B58E6885B007000C00039201939E42EC
:1058D00039D890238A89DB001A4234D0032509691C
:1058E00023685B1A0293636902985D43EB0F5D19AD
:1058F000019B6D1001331B18AB4200D91D005305ED
:1059000032D529003800FFF733FF061E09D10C23DA
:105910003B6040230120A28940421343A38105B08C
:10592000F0BD029A2169FFF7CFFEA389144A1A40FD
:1059300080231343A381029B2661F61826606561CC
:10594000019EED1AA560019BB34200D21E003200F9
:105950000399206800F0ADFAA36800209B1BA360A8
:1059600023689E192660DAE72A00380000F0B3FAAF
:10597000061EE0D121693800FFF7B0FEC7E7C04638
:105980007FFBFFFFF0B59FB0029005938B890F005E
:1059900016001B0611D50B69002B0ED14021FFF715
:1059A000E7FE38603861002805D10C23029A0138DF
:1059B00013601FB0F0BD40237B61002306AD6B6117
:1059C00020336B761033AB7634002378002B47D12D
:1059D000A31B04930DD0A31B320039000298FFF7DC
:1059E0006FFF431C00D1B5E06A69049B9446634491
:1059F0006B612378002B00D1ACE0012200235242DE
:105A00006A6002A95432521801342B60EB60AB601B
:105A10001370AB65584E05222178300000F03EFA35
:105A2000621C002820D12968CB0604D5532302AE7E
:105A300020309B1918700B0704D553232B2002AE7E
:105A40009B19187023782A2B16D000200A21099B55
:105A50002278303A092A55D9002815D0099313E045
:105A6000252BB5D00134B0E70123801B8340296882
:105A700014000B432B60CDE7059B181D1B68059098
:105A8000002B39DB0993140023782E2B0BD163787C
:105A9000621C2A2B3ED1059B02341A1D1B680592FD
:105AA000002B34DB0793354E21780322300000F0C1
:105AB000F5F9002806D04023801B83402A68013472
:105AC00013432B60217806222D48661C297600F0AE
:105AD000E5F9002846D02B4B002B2FD12968059BD8
